{
  "_format": "hh-sol-artifact-1",
  "contractName": "AccountProxy",
  "sourceName": "contracts/AccountProxy.sol",
  "abi": [
    {
      "inputs": [
        {
          "internalType": "address",
          "name": "_implementation",
          "type": "address"
        },
        {
          "internalType": "bytes",
          "name": "_initData",
          "type": "bytes"
        }
      ],
      "stateMutability": "nonpayable",
      "type": "constructor"
    },
    {
      "stateMutability": "payable",
      "type": "fallback"
    },
    {
      "inputs": [],
      "name": "implementation",
      "outputs": [
        {
          "internalType": "address",
          "name": "",
          "type": "address"
        }
      ],
      "stateMutability": "view",
      "type": "function"
    },
    {
      "inputs": [
        {
          "internalType": "address",
          "name": "newImplementation",
          "type": "address"
        }
      ],
      "name": "upgradeTo",
      "outputs": [],
      "stateMutability": "nonpayable",
      "type": "function"
    },
    {
      "stateMutability": "payable",
      "type": "receive"
    }
  ],
  "bytecode": "0x608060405234801561001057600080fd5b506040516103b93803806103b983398101604081905261002f91610131565b600080546001600160a01b0319166001600160a01b038416908117825560405161005a9084906101ff565b600060405180830381855af49150503d8060008114610095576040519150601f19603f3d011682016040523d82523d6000602084013e61009a565b606091505b50509050806100ef5760405162461bcd60e51b815260206004820152601560248201527f496e697469616c697a6174696f6e206661696c65640000000000000000000000604482015260640160405180910390fd5b50505061021b565b634e487b7160e01b600052604160045260246000fd5b60005b83811015610128578181015183820152602001610110565b50506000910152565b6000806040838503121561014457600080fd5b82516001600160a01b038116811461015b57600080fd5b60208401519092506001600160401b038082111561017857600080fd5b818501915085601f83011261018c57600080fd5b81518181111561019e5761019e6100f7565b604051601f8201601f19908116603f011681019083821181831017156101c6576101c66100f7565b816040528281528860208487010111156101df57600080fd5b6101f083602083016020880161010d565b80955050505050509250929050565b6000825161021181846020870161010d565b9190910192915050565b61018f8061022a6000396000f3fe60806040526004361061002d5760003560e01c80633659cfe6146100b05780635c60da1b146100ed57610034565b3661003457005b6000546001600160a01b03168061008a5760405162461bcd60e51b8152602060048201526016602482015275125b5c1b195b595b9d185d1a5bdb881b9bdd081cd95d60521b604482015260640160405180910390fd5b3660008037600080366000845af43d6000803e8080156100a9573d6000f35b3d6000fd5b005b3480156100bc57600080fd5b506100ae6100cb366004610129565b600080546001600160a01b0319166001600160a01b0392909216919091179055565b3480156100f957600080fd5b5060005461010d906001600160a01b031681565b6040516001600160a01b03909116815260200160405180910390f35b60006020828403121561013b57600080fd5b81356001600160a01b038116811461015257600080fd5b939250505056fea2646970667358221220b29b47c22bdd91e0a669ecdb12a7f6ce45b85c42c3017ff74694805a5b10c41b64736f6c63430008140033",
  "linkReferences": {},
  "deployedLinkReferences": {}
}