{
  "_format": "hh-sol-artifact-1",
  "contractName": "Profile",
  "sourceName": "contracts/Profiles.sol",
  "abi": [
    {
      "inputs": [
        {
          "internalType": "address",
          "name": "_accountProxy",
          "type": "address"
        }
      ],
      "stateMutability": "nonpayable",
      "type": "constructor"
    },
    {
      "inputs": [],
      "name": "InvalidShortString",
      "type": "error"
    },
    {
      "inputs": [
        {
          "internalType": "string",
          "name": "str",
          "type": "string"
        }
      ],
      "name": "StringTooLong",
      "type": "error"
    },
    {
      "anonymous": false,
      "inputs": [],
      "name": "EIP712DomainChanged",
      "type": "event"
    },
    {
      "anonymous": false,
      "inputs": [
        {
          "indexed": true,
          "internalType": "address",
          "name": "company",
          "type": "address"
        }
      ],
      "name": "InsuranceCompanyCreated",
      "type": "event"
    },
    {
      "anonymous": false,
      "inputs": [
        {
          "indexed": true,
          "internalType": "address",
          "name": "user",
          "type": "address"
        }
      ],
      "name": "UserProfileCreated",
      "type": "event"
    },
    {
      "anonymous": false,
      "inputs": [
        {
          "indexed": true,
          "internalType": "address",
          "name": "user",
          "type": "address"
        }
      ],
      "name": "UserProfileUpdated",
      "type": "event"
    },
    {
      "inputs": [
        {
          "internalType": "uint16",
          "name": "",
          "type": "uint16"
        }
      ],
      "name": "allInsuranceCompanies",
      "outputs": [
        {
          "internalType": "string",
          "name": "name",
          "type": "string"
        },
        {
          "internalType": "string",
          "name": "img",
          "type": "string"
        },
        {
          "internalType": "uint16",
          "name": "id",
          "type": "uint16"
        },
        {
          "internalType": "address",
          "name": "owner",
          "type": "address"
        },
        {
          "internalType": "uint256",
          "name": "createdAt",
          "type": "uint256"
        }
      ],
      "stateMutability": "view",
      "type": "function"
    },
    {
      "inputs": [
        {
          "internalType": "uint16",
          "name": "",
          "type": "uint16"
        }
      ],
      "name": "allUserProfiles",
      "outputs": [
        {
          "internalType": "string",
          "name": "username",
          "type": "string"
        },
        {
          "internalType": "string",
          "name": "img",
          "type": "string"
        },
        {
          "internalType": "uint16",
          "name": "id",
          "type": "uint16"
        },
        {
          "internalType": "address",
          "name": "owner",
          "type": "address"
        },
        {
          "internalType": "uint256",
          "name": "createdAt",
          "type": "uint256"
        },
        {
          "internalType": "bool",
          "name": "isSeller",
          "type": "bool"
        }
      ],
      "stateMutability": "view",
      "type": "function"
    },
    {
      "inputs": [],
      "name": "eip712Domain",
      "outputs": [
        {
          "internalType": "bytes1",
          "name": "fields",
          "type": "bytes1"
        },
        {
          "internalType": "string",
          "name": "name",
          "type": "string"
        },
        {
          "internalType": "string",
          "name": "version",
          "type": "string"
        },
        {
          "internalType": "uint256",
          "name": "chainId",
          "type": "uint256"
        },
        {
          "internalType": "address",
          "name": "verifyingContract",
          "type": "address"
        },
        {
          "internalType": "bytes32",
          "name": "salt",
          "type": "bytes32"
        },
        {
          "internalType": "uint256[]",
          "name": "extensions",
          "type": "uint256[]"
        }
      ],
      "stateMutability": "view",
      "type": "function"
    },
    {
      "inputs": [
        {
          "internalType": "uint16",
          "name": "_id",
          "type": "uint16"
        }
      ],
      "name": "fetchInsuranceCompany",
      "outputs": [
        {
          "components": [
            {
              "internalType": "string",
              "name": "name",
              "type": "string"
            },
            {
              "internalType": "string",
              "name": "img",
              "type": "string"
            },
            {
              "internalType": "uint16",
              "name": "id",
              "type": "uint16"
            },
            {
              "internalType": "address",
              "name": "owner",
              "type": "address"
            },
            {
              "internalType": "uint256",
              "name": "createdAt",
              "type": "uint256"
            }
          ],
          "internalType": "struct Profile.InsuranceCompany",
          "name": "",
          "type": "tuple"
        }
      ],
      "stateMutability": "view",
      "type": "function"
    },
    {
      "inputs": [
        {
          "internalType": "uint16",
          "name": "_id",
          "type": "uint16"
        }
      ],
      "name": "fetchUserProfile",
      "outputs": [
        {
          "components": [
            {
              "internalType": "string",
              "name": "username",
              "type": "string"
            },
            {
              "internalType": "string",
              "name": "img",
              "type": "string"
            },
            {
              "internalType": "uint16",
              "name": "id",
              "type": "uint16"
            },
            {
              "internalType": "address",
              "name": "owner",
              "type": "address"
            },
            {
              "internalType": "uint256",
              "name": "createdAt",
              "type": "uint256"
            },
            {
              "internalType": "bool",
              "name": "isSeller",
              "type": "bool"
            }
          ],
          "internalType": "struct Profile.UserProfile",
          "name": "",
          "type": "tuple"
        }
      ],
      "stateMutability": "view",
      "type": "function"
    },
    {
      "inputs": [],
      "name": "iAccountProxy",
      "outputs": [
        {
          "internalType": "contract IAccountProxy",
          "name": "",
          "type": "address"
        }
      ],
      "stateMutability": "view",
      "type": "function"
    },
    {
      "inputs": [],
      "name": "insuranceCompanyCount",
      "outputs": [
        {
          "internalType": "uint16",
          "name": "",
          "type": "uint16"
        }
      ],
      "stateMutability": "view",
      "type": "function"
    },
    {
      "inputs": [
        {
          "internalType": "address",
          "name": "",
          "type": "address"
        }
      ],
      "name": "isInsuranceCompany",
      "outputs": [
        {
          "internalType": "bool",
          "name": "",
          "type": "bool"
        }
      ],
      "stateMutability": "view",
      "type": "function"
    },
    {
      "inputs": [
        {
          "internalType": "address",
          "name": "",
          "type": "address"
        }
      ],
      "name": "isUser",
      "outputs": [
        {
          "internalType": "bool",
          "name": "",
          "type": "bool"
        }
      ],
      "stateMutability": "view",
      "type": "function"
    },
    {
      "inputs": [
        {
          "internalType": "address",
          "name": "company",
          "type": "address"
        },
        {
          "internalType": "string",
          "name": "name",
          "type": "string"
        },
        {
          "internalType": "string",
          "name": "img",
          "type": "string"
        }
      ],
      "name": "onboardInsuranceCompany",
      "outputs": [],
      "stateMutability": "nonpayable",
      "type": "function"
    },
    {
      "inputs": [
        {
          "internalType": "address",
          "name": "user",
          "type": "address"
        },
        {
          "internalType": "string",
          "name": "username",
          "type": "string"
        },
        {
          "internalType": "string",
          "name": "img",
          "type": "string"
        },
        {
          "internalType": "bool",
          "name": "_isSeller",
          "type": "bool"
        }
      ],
      "name": "onboardUser",
      "outputs": [],
      "stateMutability": "nonpayable",
      "type": "function"
    },
    {
      "inputs": [
        {
          "internalType": "string",
          "name": "_img",
          "type": "string"
        },
        {
          "internalType": "uint16",
          "name": "_id",
          "type": "uint16"
        }
      ],
      "name": "updateUserProfile",
      "outputs": [],
      "stateMutability": "nonpayable",
      "type": "function"
    },
    {
      "inputs": [],
      "name": "userCount",
      "outputs": [
        {
          "internalType": "uint16",
          "name": "",
          "type": "uint16"
        }
      ],
      "stateMutability": "view",
      "type": "function"
    }
  ],
  "bytecode": "0x6101606040523480156200001257600080fd5b5060405162001a9c38038062001a9c8339810160408190526200003591620001cc565b604080518082018252600781526650726f66696c6560c81b602080830191909152825180840190935260018352603160f81b90830152906200007982600062000147565b610120526200008a81600162000147565b61014052815160208084019190912060e052815190820120610100524660a0526200011860e05161010051604080517f8b73c3c69bb8fe3d512ecc4cf759cc79239f7b179b0ffacaa9a75d522b39400f60208201529081019290925260608201524660808201523060a082015260009060c00160405160208183030381529060405280519060200120905090565b60805250503060c052600280546001600160c01b0319166001600160a01b0392909216919091179055620003e4565b600060208351101562000167576200015f8362000180565b90506200017a565b81620001748482620002a3565b5060ff90505b92915050565b600080829050601f81511115620001b7578260405163305a27a960e01b8152600401620001ae91906200036f565b60405180910390fd5b8051620001c482620003bf565b179392505050565b600060208284031215620001df57600080fd5b81516001600160a01b0381168114620001f757600080fd5b9392505050565b634e487b7160e01b600052604160045260246000fd5b600181811c908216806200022957607f821691505b6020821081036200024a57634e487b7160e01b600052602260045260246000fd5b50919050565b601f8211156200029e57600081815260208120601f850160051c81016020861015620002795750805b601f850160051c820191505b818110156200029a5782815560010162000285565b5050505b505050565b81516001600160401b03811115620002bf57620002bf620001fe565b620002d781620002d0845462000214565b8462000250565b602080601f8311600181146200030f5760008415620002f65750858301515b600019600386901b1c1916600185901b1785556200029a565b600085815260208120601f198616915b8281101562000340578886015182559484019460019091019084016200031f565b50858210156200035f5787850151600019600388901b60f8161c191681555b5050505050600190811b01905550565b600060208083528351808285015260005b818110156200039e5785810183015185820160400152820162000380565b506000604082860101526040601f19601f8301168501019250505092915050565b805160208083015191908110156200024a5760001960209190910360031b1b16919050565b60805160a05160c05160e05161010051610120516101405161166c620004306000396000610eb901526000610e870152600050506000505060005050600050506000505061166c6000f3fe608060405234801561001057600080fd5b50600436106100cf5760003560e01c806384b0196e1161008c578063c3cdca5211610066578063c3cdca521461020b578063da5852e71461021e578063ee70571414610243578063f2d4a8a31461026357600080fd5b806384b0196e146101b75780639942e14c146101d2578063b6714813146101e757600080fd5b806304455419146100d457806307973ccf1461010157806326f72ae8146101165780634209fff1146101495780637b4fda671461016c5780638455617c14610197575b600080fd5b6002546100e990600160a01b900461ffff1681565b60405161ffff90911681526020015b60405180910390f35b6002546100e990600160b01b900461ffff1681565b61013961012436600461100b565b60036020526000908152604090205460ff1681565b60405190151581526020016100f8565b61013961015736600461100b565b60046020526000908152604090205460ff1681565b60025461017f906001600160a01b031681565b6040516001600160a01b0390911681526020016100f8565b6101aa6101a536600461103f565b610276565b6040516100f891906110a0565b6101bf61049b565b6040516100f8979695949392919061111c565b6101e56101e0366004611255565b6104e1565b005b6101fa6101f536600461103f565b6106c0565b6040516100f89594939291906112c9565b6101e5610219366004611319565b61080e565b61023161022c36600461103f565b610a08565b6040516100f8969594939291906113a5565b61025661025136600461103f565b610b5f565b6040516100f891906113ff565b6101e561027136600461146f565b610d84565b6040805160c081018252606080825260208201819052600092820183905281018290526080810182905260a081019190915260008261ffff161180156102cd575060025461ffff600160b01b909104811690831611155b6103175760405162461bcd60e51b8152602060048201526016602482015275155cd95c881c1c9bd99a5b19481b9bdd08199bdd5b9960521b60448201526064015b60405180910390fd5b61ffff821660009081526006602052604090819020815160c08101909252805482908290610344906114bd565b80601f0160208091040260200160405190810160405280929190818152602001828054610370906114bd565b80156103bd5780601f10610392576101008083540402835291602001916103bd565b820191906000526020600020905b8154815290600101906020018083116103a057829003601f168201915b505050505081526020016001820180546103d6906114bd565b80601f0160208091040260200160405190810160405280929190818152602001828054610402906114bd565b801561044f5780601f106104245761010080835404028352916020019161044f565b820191906000526020600020905b81548152906001019060200180831161043257829003601f168201915b5050509183525050600282015461ffff811660208301526201000090046001600160a01b031660408201526003820154606082015260049091015460ff16151560809091015292915050565b6000606080600080600060606104af610e80565b6104b7610eb2565b60408051600080825260208201909252600f60f81b9b939a50919850469750309650945092509050565b6001600160a01b038316331461052a5760405162461bcd60e51b815260206004820152600e60248201526d139bdd08105d5d1a1bdc9a5e995960921b604482015260640161030e565b6001600160a01b03831660009081526003602052604090205460ff16156105935760405162461bcd60e51b815260206004820152601960248201527f436f6d70616e7920616c7265616479206f6e626f617264656400000000000000604482015260640161030e565b6001600260148282829054906101000a900461ffff166105b391906114f7565b82546101009290920a61ffff8181021990931691831602179091556040805160a0810182528581526020808201869052600254600160a01b900490931681830181905233606083015242608083015260009081526005909352912081519192509081906106209082611576565b50602082015160018201906106359082611576565b50604082810151600283018054606086015161ffff9093166001600160b01b031990911617620100006001600160a01b03938416021790556080909301516003928301559185166000818152602092909252828220805460ff1916600117905591517fc110d202b6fb101a839748aa0298f75317ff7cfbf18ad475640411612db070bd9190a2505050565b6005602052600090815260409020805481906106db906114bd565b80601f0160208091040260200160405190810160405280929190818152602001828054610707906114bd565b80156107545780601f1061072957610100808354040283529160200191610754565b820191906000526020600020905b81548152906001019060200180831161073757829003601f168201915b505050505090806001018054610769906114bd565b80601f0160208091040260200160405190810160405280929190818152602001828054610795906114bd565b80156107e25780601f106107b7576101008083540402835291602001916107e2565b820191906000526020600020905b8154815290600101906020018083116107c557829003601f168201915b505050506002830154600390930154919261ffff811692620100009091046001600160a01b0316915085565b6001600160a01b03841633146108575760405162461bcd60e51b815260206004820152600e60248201526d139bdd08105d5d1a1bdc9a5e995960921b604482015260640161030e565b6001600160a01b03841660009081526004602052604090205460ff16156108b95760405162461bcd60e51b8152602060048201526016602482015275155cd95c88185b1c9958591e481bdb989bd85c99195960521b604482015260640161030e565b6001600260168282829054906101000a900461ffff166108d991906114f7565b82546101009290920a61ffff8181021990931691831602179091556040805160c0810182528681526020808201879052600254600160b01b900490931681830181905233606083015242608083015285151560a0830152600090815260069093529120815191925090819061094e9082611576565b50602082015160018201906109639082611576565b5060408281015160028301805460608601516001600160a01b0390811662010000026001600160b01b031990921661ffff909416939093171790556080840151600384015560a0909301516004928301805491151560ff1992831617905592871660008181526020939093528183208054909416600117909355517fcad5611e4d023d4207e4966a48645fc2b409143ff3a971b820b4c1d401c1cdbd9190a250505050565b600660205260009081526040902080548190610a23906114bd565b80601f0160208091040260200160405190810160405280929190818152602001828054610a4f906114bd565b8015610a9c5780601f10610a7157610100808354040283529160200191610a9c565b820191906000526020600020905b815481529060010190602001808311610a7f57829003601f168201915b505050505090806001018054610ab1906114bd565b80601f0160208091040260200160405190810160405280929190818152602001828054610add906114bd565b8015610b2a5780601f10610aff57610100808354040283529160200191610b2a565b820191906000526020600020905b815481529060010190602001808311610b0d57829003601f168201915b5050505060028301546003840154600490940154929361ffff821693620100009092046001600160a01b031692509060ff1686565b610b9e6040518060a001604052806060815260200160608152602001600061ffff16815260200160006001600160a01b03168152602001600081525090565b60008261ffff16118015610bc3575060025461ffff600160a01b909104811690831611155b610c0f5760405162461bcd60e51b815260206004820152601b60248201527f496e737572616e636520636f6d70616e79206e6f7420666f756e640000000000604482015260640161030e565b61ffff821660009081526005602052604090819020815160a08101909252805482908290610c3c906114bd565b80601f0160208091040260200160405190810160405280929190818152602001828054610c68906114bd565b8015610cb55780601f10610c8a57610100808354040283529160200191610cb5565b820191906000526020600020905b815481529060010190602001808311610c9857829003601f168201915b50505050508152602001600182018054610cce906114bd565b80601f0160208091040260200160405190810160405280929190818152602001828054610cfa906114bd565b8015610d475780601f10610d1c57610100808354040283529160200191610d47565b820191906000526020600020905b815481529060010190602001808311610d2a57829003601f168201915b5050509183525050600282015461ffff811660208301526201000090046001600160a01b0316604082015260039091015460609091015292915050565b3360009081526004602052604090205460ff16610ddb5760405162461bcd60e51b81526020600482015260156024820152742737ba1030903932b3b4b9ba32b932b2103ab9b2b960591b604482015260640161030e565b61ffff8116600090815260066020526040902060028101546201000090046001600160a01b03163314610e415760405162461bcd60e51b815260206004820152600e60248201526d139bdd08185d5d1a1bdc9a5e995960921b604482015260640161030e565b60018101610e4f8482611576565b5060405133907fa7dff163671e610b2bf8ca2e049a3f29bd4e483b11bed1545b16d733ff17780b90600090a2505050565b6060610ead7f00000000000000000000000000000000000000000000000000000000000000006000610edb565b905090565b6060610ead7f000000000000000000000000000000000000000000000000000000000000000060015b606060ff8314610ef557610eee83610f88565b9050610f82565b818054610f01906114bd565b80601f0160208091040260200160405190810160405280929190818152602001828054610f2d906114bd565b8015610f7a5780601f10610f4f57610100808354040283529160200191610f7a565b820191906000526020600020905b815481529060010190602001808311610f5d57829003601f168201915b505050505090505b92915050565b60606000610f9583610fc7565b604080516020808252818301909252919250600091906020820181803683375050509182525060208101929092525090565b600060ff8216601f811115610f8257604051632cd44ac360e21b815260040160405180910390fd5b80356001600160a01b038116811461100657600080fd5b919050565b60006020828403121561101d57600080fd5b61102682610fef565b9392505050565b803561ffff8116811461100657600080fd5b60006020828403121561105157600080fd5b6110268261102d565b6000815180845260005b8181101561108057602081850181015186830182015201611064565b506000602082860101526020601f19601f83011685010191505092915050565b602081526000825160c060208401526110bc60e084018261105a565b90506020840151601f198483030160408501526110d9828261105a565b91505061ffff604085015116606084015260018060a01b036060850151166080840152608084015160a084015260a0840151151560c08401528091505092915050565b60ff60f81b881681526000602060e08184015261113c60e084018a61105a565b838103604085015261114e818a61105a565b606085018990526001600160a01b038816608086015260a0850187905284810360c0860152855180825283870192509083019060005b818110156111a057835183529284019291840191600101611184565b50909c9b505050505050505050505050565b634e487b7160e01b600052604160045260246000fd5b600082601f8301126111d957600080fd5b813567ffffffffffffffff808211156111f4576111f46111b2565b604051601f8301601f19908116603f0116810190828211818310171561121c5761121c6111b2565b8160405283815286602085880101111561123557600080fd5b836020870160208301376000602085830101528094505050505092915050565b60008060006060848603121561126a57600080fd5b61127384610fef565b9250602084013567ffffffffffffffff8082111561129057600080fd5b61129c878388016111c8565b935060408601359150808211156112b257600080fd5b506112bf868287016111c8565b9150509250925092565b60a0815260006112dc60a083018861105a565b82810360208401526112ee818861105a565b61ffff96909616604084015250506001600160a01b0392909216606083015260809091015292915050565b6000806000806080858703121561132f57600080fd5b61133885610fef565b9350602085013567ffffffffffffffff8082111561135557600080fd5b611361888389016111c8565b9450604087013591508082111561137757600080fd5b50611384878288016111c8565b9250506060850135801515811461139a57600080fd5b939692955090935050565b60c0815260006113b860c083018961105a565b82810360208401526113ca818961105a565b61ffff97909716604084015250506001600160a01b039390931660608401526080830191909152151560a09091015292915050565b602081526000825160a0602084015261141b60c084018261105a565b90506020840151601f19848303016040850152611438828261105a565b91505061ffff604085015116606084015260018060a01b036060850151166080840152608084015160a08401528091505092915050565b6000806040838503121561148257600080fd5b823567ffffffffffffffff81111561149957600080fd5b6114a5858286016111c8565b9250506114b46020840161102d565b90509250929050565b600181811c908216806114d157607f821691505b6020821081036114f157634e487b7160e01b600052602260045260246000fd5b50919050565b61ffff81811683821601908082111561152057634e487b7160e01b600052601160045260246000fd5b5092915050565b601f82111561157157600081815260208120601f850160051c8101602086101561154e5750805b601f850160051c820191505b8181101561156d5782815560010161155a565b5050505b505050565b815167ffffffffffffffff811115611590576115906111b2565b6115a48161159e84546114bd565b84611527565b602080601f8311600181146115d957600084156115c15750858301515b600019600386901b1c1916600185901b17855561156d565b600085815260208120601f198616915b82811015611608578886015182559484019460019091019084016115e9565b50858210156116265787850151600019600388901b60f8161c191681555b5050505050600190811b0190555056fea2646970667358221220fff34874f7bd3e74ac522d31ef50484441bd4b7e4baea110814f60bce98e033364736f6c63430008140033",
  "linkReferences": {},
  "deployedLinkReferences": {}
}