{
  "_format": "hh-sol-artifact-1",
  "contractName": "AccountLogic",
  "sourceName": "contracts/AccountLogic.sol",
  "abi": [
    {
      "inputs": [],
      "name": "InvalidInitialization",
      "type": "error"
    },
    {
      "inputs": [],
      "name": "NotInitializing",
      "type": "error"
    },
    {
      "anonymous": false,
      "inputs": [
        {
          "indexed": false,
          "internalType": "uint64",
          "name": "version",
          "type": "uint64"
        }
      ],
      "name": "Initialized",
      "type": "event"
    },
    {
      "inputs": [],
      "name": "implementationOwner",
      "outputs": [
        {
          "internalType": "address",
          "name": "",
          "type": "address"
        }
      ],
      "stateMutability": "view",
      "type": "function"
    },
    {
      "inputs": [
        {
          "internalType": "address",
          "name": "_owner",
          "type": "address"
        },
        {
          "internalType": "string",
          "name": "_someData",
          "type": "string"
        }
      ],
      "name": "initialize",
      "outputs": [],
      "stateMutability": "nonpayable",
      "type": "function"
    },
    {
      "inputs": [
        {
          "internalType": "string",
          "name": "_newData",
          "type": "string"
        }
      ],
      "name": "setSomeData",
      "outputs": [],
      "stateMutability": "nonpayable",
      "type": "function"
    },
    {
      "inputs": [],
      "name": "someData",
      "outputs": [
        {
          "internalType": "string",
          "name": "",
          "type": "string"
        }
      ],
      "stateMutability": "view",
      "type": "function"
    }
  ],
  "bytecode": "0x608060405234801561001057600080fd5b506105e4806100206000396000f3fe608060405234801561001057600080fd5b506004361061004c5760003560e01c8063b148119a14610051578063c0225a0114610066578063c73b717514610096578063f399e22e146100ab575b600080fd5b61006461005f36600461037e565b6100be565b005b600054610079906001600160a01b031681565b6040516001600160a01b0390911681526020015b60405180910390f35b61009e61011d565b60405161008d91906103bb565b6100646100b9366004610409565b6101ab565b6000546001600160a01b0316331461010d5760405162461bcd60e51b815260206004820152600e60248201526d139bdd08185d5d1a1bdc9a5e995960921b604482015260640160405180910390fd5b600161011982826104ee565b5050565b6001805461012a90610465565b80601f016020809104026020016040519081016040528092919081815260200182805461015690610465565b80156101a35780601f10610178576101008083540402835291602001916101a3565b820191906000526020600020905b81548152906001019060200180831161018657829003601f168201915b505050505081565b7ff0c57e16840df040f15088dc2f81fe391c3923bec73e23a9662efc9c229c6a008054600160401b810460ff16159067ffffffffffffffff166000811580156101f15750825b905060008267ffffffffffffffff16600114801561020e5750303b155b90508115801561021c575080155b1561023a5760405163f92ee8a960e01b815260040160405180910390fd5b845467ffffffffffffffff19166001178555831561026457845460ff60401b1916600160401b1785555b600080546001600160a01b0319166001600160a01b038916179055600161028b87826104ee565b5083156102d257845460ff60401b19168555604051600181527fc7f505b2f371ae2175ee4913f4499e1f2633a7b5936321eed1cdaeb6115181d29060200160405180910390a15b50505050505050565b634e487b7160e01b600052604160045260246000fd5b600082601f83011261030257600080fd5b813567ffffffffffffffff8082111561031d5761031d6102db565b604051601f8301601f19908116603f01168101908282118183101715610345576103456102db565b8160405283815286602085880101111561035e57600080fd5b836020870160208301376000602085830101528094505050505092915050565b60006020828403121561039057600080fd5b813567ffffffffffffffff8111156103a757600080fd5b6103b3848285016102f1565b949350505050565b600060208083528351808285015260005b818110156103e8578581018301518582016040015282016103cc565b506000604082860101526040601f19601f8301168501019250505092915050565b6000806040838503121561041c57600080fd5b82356001600160a01b038116811461043357600080fd5b9150602083013567ffffffffffffffff81111561044f57600080fd5b61045b858286016102f1565b9150509250929050565b600181811c9082168061047957607f821691505b60208210810361049957634e487b7160e01b600052602260045260246000fd5b50919050565b601f8211156104e957600081815260208120601f850160051c810160208610156104c65750805b601f850160051c820191505b818110156104e5578281556001016104d2565b5050505b505050565b815167ffffffffffffffff811115610508576105086102db565b61051c816105168454610465565b8461049f565b602080601f83116001811461055157600084156105395750858301515b600019600386901b1c1916600185901b1785556104e5565b600085815260208120601f198616915b8281101561058057888601518255948401946001909101908401610561565b508582101561059e5787850151600019600388901b60f8161c191681555b5050505050600190811b0190555056fea264697066735822122096567c3fdf7677ff9b45ef0d0f3748d848eff620fbe16d28689d667bf5af035d64736f6c63430008140033",
  "linkReferences": {},
  "deployedLinkReferences": {}
}