{
  "_format": "hh-sol-artifact-1",
  "contractName": "ClaimsAutomation",
  "sourceName": "contracts/InsurancePolicy.sol",
  "abi": [
    {
      "inputs": [],
      "stateMutability": "nonpayable",
      "type": "constructor"
    },
    {
      "inputs": [
        {
          "internalType": "address",
          "name": "owner",
          "type": "address"
        }
      ],
      "name": "OwnableInvalidOwner",
      "type": "error"
    },
    {
      "inputs": [
        {
          "internalType": "address",
          "name": "account",
          "type": "address"
        }
      ],
      "name": "OwnableUnauthorizedAccount",
      "type": "error"
    },
    {
      "anonymous": false,
      "inputs": [
        {
          "indexed": false,
          "internalType": "address",
          "name": "policy",
          "type": "address"
        }
      ],
      "name": "ConditionTriggered",
      "type": "event"
    },
    {
      "anonymous": false,
      "inputs": [
        {
          "indexed": true,
          "internalType": "address",
          "name": "previousOwner",
          "type": "address"
        },
        {
          "indexed": true,
          "internalType": "address",
          "name": "newOwner",
          "type": "address"
        }
      ],
      "name": "OwnershipTransferred",
      "type": "event"
    },
    {
      "anonymous": false,
      "inputs": [
        {
          "indexed": false,
          "internalType": "address",
          "name": "policy",
          "type": "address"
        }
      ],
      "name": "PolicyRegistered",
      "type": "event"
    },
    {
      "inputs": [],
      "name": "owner",
      "outputs": [
        {
          "internalType": "address",
          "name": "",
          "type": "address"
        }
      ],
      "stateMutability": "view",
      "type": "function"
    },
    {
      "inputs": [
        {
          "internalType": "address",
          "name": "policy",
          "type": "address"
        }
      ],
      "name": "registerPolicy",
      "outputs": [],
      "stateMutability": "nonpayable",
      "type": "function"
    },
    {
      "inputs": [],
      "name": "renounceOwnership",
      "outputs": [],
      "stateMutability": "nonpayable",
      "type": "function"
    },
    {
      "inputs": [
        {
          "internalType": "address",
          "name": "newOwner",
          "type": "address"
        }
      ],
      "name": "transferOwnership",
      "outputs": [],
      "stateMutability": "nonpayable",
      "type": "function"
    },
    {
      "inputs": [
        {
          "internalType": "address",
          "name": "policy",
          "type": "address"
        }
      ],
      "name": "triggerClaim",
      "outputs": [],
      "stateMutability": "nonpayable",
      "type": "function"
    },
    {
      "inputs": [
        {
          "internalType": "address",
          "name": "",
          "type": "address"
        }
      ],
      "name": "validPolicies",
      "outputs": [
        {
          "internalType": "bool",
          "name": "",
          "type": "bool"
        }
      ],
      "stateMutability": "view",
      "type": "function"
    }
  ],
  "bytecode": "0x608060405234801561001057600080fd5b50338061003757604051631e4fbdf760e01b81526000600482015260240160405180910390fd5b61004081610046565b50610096565b600080546001600160a01b038381166001600160a01b0319831681178455604051919092169283917f8be0079c531659141344cd1fd0a4f28419497f9722a3daafe3b4186f6b6457e09190a35050565b610389806100a56000396000f3fe608060405234801561001057600080fd5b50600436106100625760003560e01c80630a4050a5146100675780634bf20e201461007c578063715018a61461008f5780638da5cb5b14610097578063f0ed9e94146100b7578063f2fde38b146100ea575b600080fd5b61007a610075366004610323565b6100fd565b005b61007a61008a366004610323565b610161565b61007a610254565b6000546040516001600160a01b0390911681526020015b60405180910390f35b6100da6100c5366004610323565b60016020526000908152604090205460ff1681565b60405190151581526020016100ae565b61007a6100f8366004610323565b610268565b6101056102a6565b6001600160a01b038116600081815260016020818152604092839020805460ff191690921790915590519182527f2246d3e7149350745a2b0bd38c339929da4c364fbaf54cee5dd8dfbf803049a191015b60405180910390a150565b6101696102a6565b6001600160a01b03811660009081526001602052604090205460ff166101c75760405162461bcd60e51b815260206004820152600e60248201526d496e76616c696420706f6c69637960901b60448201526064015b60405180910390fd5b806001600160a01b0316630a5cb6396040518163ffffffff1660e01b8152600401600060405180830381600087803b15801561020257600080fd5b505af1158015610216573d6000803e3d6000fd5b50506040516001600160a01b03841681527fad8b0b07767595ecd2f2b78ae9959666a3ec38d4f1d37d1917a1b3a5f2bf9bb092506020019050610156565b61025c6102a6565b61026660006102d3565b565b6102706102a6565b6001600160a01b03811661029a57604051631e4fbdf760e01b8152600060048201526024016101be565b6102a3816102d3565b50565b6000546001600160a01b031633146102665760405163118cdaa760e01b81523360048201526024016101be565b600080546001600160a01b038381166001600160a01b0319831681178455604051919092169283917f8be0079c531659141344cd1fd0a4f28419497f9722a3daafe3b4186f6b6457e09190a35050565b60006020828403121561033557600080fd5b81356001600160a01b038116811461034c57600080fd5b939250505056fea2646970667358221220f7b980c67ba9cde496054a64c5e834721d1939fdd1622d5aaf6f6bb4c99278fe64736f6c63430008140033",
  "linkReferences": {},
  "deployedLinkReferences": {}
}