{
  "_format": "hh-sol-artifact-1",
  "contractName": "InsurancePolicyFactory",
  "sourceName": "contracts/InsurancePolicy.sol",
  "abi": [
    {
      "inputs": [
        {
          "internalType": "address",
          "name": "_marketplace",
          "type": "address"
        }
      ],
      "stateMutability": "nonpayable",
      "type": "constructor"
    },
    {
      "inputs": [
        {
          "internalType": "address",
          "name": "owner",
          "type": "address"
        }
      ],
      "name": "OwnableInvalidOwner",
      "type": "error"
    },
    {
      "inputs": [
        {
          "internalType": "address",
          "name": "account",
          "type": "address"
        }
      ],
      "name": "OwnableUnauthorizedAccount",
      "type": "error"
    },
    {
      "anonymous": false,
      "inputs": [
        {
          "indexed": true,
          "internalType": "address",
          "name": "previousOwner",
          "type": "address"
        },
        {
          "indexed": true,
          "internalType": "address",
          "name": "newOwner",
          "type": "address"
        }
      ],
      "name": "OwnershipTransferred",
      "type": "event"
    },
    {
      "anonymous": false,
      "inputs": [
        {
          "indexed": true,
          "internalType": "address",
          "name": "user",
          "type": "address"
        },
        {
          "indexed": false,
          "internalType": "address",
          "name": "policy",
          "type": "address"
        }
      ],
      "name": "PolicyCreated",
      "type": "event"
    },
    {
      "anonymous": false,
      "inputs": [
        {
          "indexed": true,
          "internalType": "address",
          "name": "user",
          "type": "address"
        },
        {
          "indexed": true,
          "internalType": "uint256",
          "name": "itemId",
          "type": "uint256"
        },
        {
          "indexed": false,
          "internalType": "address",
          "name": "policy",
          "type": "address"
        }
      ],
      "name": "PolicyCreatedForItem",
      "type": "event"
    },
    {
      "inputs": [
        {
          "internalType": "uint256",
          "name": "",
          "type": "uint256"
        }
      ],
      "name": "allPolicies",
      "outputs": [
        {
          "internalType": "address",
          "name": "",
          "type": "address"
        }
      ],
      "stateMutability": "view",
      "type": "function"
    },
    {
      "inputs": [
        {
          "internalType": "address payable",
          "name": "insured",
          "type": "address"
        },
        {
          "internalType": "address payable",
          "name": "insurer",
          "type": "address"
        },
        {
          "internalType": "uint256",
          "name": "premium",
          "type": "uint256"
        },
        {
          "internalType": "uint256",
          "name": "coverageAmount",
          "type": "uint256"
        },
        {
          "internalType": "uint256",
          "name": "duration",
          "type": "uint256"
        },
        {
          "internalType": "string",
          "name": "policyType",
          "type": "string"
        },
        {
          "internalType": "address",
          "name": "payoutToken",
          "type": "address"
        },
        {
          "internalType": "uint256",
          "name": "marketPlaceItemId",
          "type": "uint256"
        }
      ],
      "name": "createPolicy",
      "outputs": [
        {
          "internalType": "address",
          "name": "policy",
          "type": "address"
        }
      ],
      "stateMutability": "nonpayable",
      "type": "function"
    },
    {
      "inputs": [
        {
          "internalType": "address payable",
          "name": "insured",
          "type": "address"
        },
        {
          "internalType": "address payable",
          "name": "insurer",
          "type": "address"
        },
        {
          "internalType": "uint256",
          "name": "premium",
          "type": "uint256"
        },
        {
          "internalType": "uint256",
          "name": "coverageAmount",
          "type": "uint256"
        },
        {
          "internalType": "uint256",
          "name": "duration",
          "type": "uint256"
        },
        {
          "internalType": "string",
          "name": "policyType",
          "type": "string"
        },
        {
          "internalType": "address",
          "name": "payoutToken",
          "type": "address"
        },
        {
          "internalType": "uint256",
          "name": "marketplaceItemId",
          "type": "uint256"
        }
      ],
      "name": "createPolicyForMarketplaceItem",
      "outputs": [
        {
          "internalType": "address",
          "name": "policy",
          "type": "address"
        }
      ],
      "stateMutability": "nonpayable",
      "type": "function"
    },
    {
      "inputs": [],
      "name": "getAllPolicies",
      "outputs": [
        {
          "internalType": "address[]",
          "name": "",
          "type": "address[]"
        }
      ],
      "stateMutability": "view",
      "type": "function"
    },
    {
      "inputs": [
        {
          "internalType": "uint256",
          "name": "itemId",
          "type": "uint256"
        }
      ],
      "name": "getPolicyByItemId",
      "outputs": [
        {
          "internalType": "address",
          "name": "",
          "type": "address"
        }
      ],
      "stateMutability": "view",
      "type": "function"
    },
    {
      "inputs": [
        {
          "internalType": "address",
          "name": "user",
          "type": "address"
        }
      ],
      "name": "getUserPolicies",
      "outputs": [
        {
          "internalType": "address[]",
          "name": "",
          "type": "address[]"
        }
      ],
      "stateMutability": "view",
      "type": "function"
    },
    {
      "inputs": [
        {
          "internalType": "uint256",
          "name": "",
          "type": "uint256"
        }
      ],
      "name": "itemIdToPolicy",
      "outputs": [
        {
          "internalType": "address",
          "name": "",
          "type": "address"
        }
      ],
      "stateMutability": "view",
      "type": "function"
    },
    {
      "inputs": [],
      "name": "marketplace",
      "outputs": [
        {
          "internalType": "contract IMarketplace",
          "name": "",
          "type": "address"
        }
      ],
      "stateMutability": "view",
      "type": "function"
    },
    {
      "inputs": [],
      "name": "owner",
      "outputs": [
        {
          "internalType": "address",
          "name": "",
          "type": "address"
        }
      ],
      "stateMutability": "view",
      "type": "function"
    },
    {
      "inputs": [],
      "name": "renounceOwnership",
      "outputs": [],
      "stateMutability": "nonpayable",
      "type": "function"
    },
    {
      "inputs": [
        {
          "internalType": "address",
          "name": "newOwner",
          "type": "address"
        }
      ],
      "name": "transferOwnership",
      "outputs": [],
      "stateMutability": "nonpayable",
      "type": "function"
    },
    {
      "inputs": [
        {
          "internalType": "address",
          "name": "",
          "type": "address"
        },
        {
          "internalType": "uint256",
          "name": "",
          "type": "uint256"
        }
      ],
      "name": "userPolicies",
      "outputs": [
        {
          "internalType": "address",
          "name": "",
          "type": "address"
        }
      ],
      "stateMutability": "view",
      "type": "function"
    }
  ],
  "bytecode": "0x608060405234801561001057600080fd5b50604051611bd8380380611bd883398101604081905261002f916100d4565b338061005557604051631e4fbdf760e01b81526000600482015260240160405180910390fd5b61005e81610084565b50600280546001600160a01b0319166001600160a01b0392909216919091179055610104565b600080546001600160a01b038381166001600160a01b0319831681178455604051919092169283917f8be0079c531659141344cd1fd0a4f28419497f9722a3daafe3b4186f6b6457e09190a35050565b6000602082840312156100e657600080fd5b81516001600160a01b03811681146100fd57600080fd5b9392505050565b611ac5806101136000396000f3fe60806040523480156200001157600080fd5b5060043610620000c35760003560e01c8063715018a6116200007a578063715018a6146200018b57806379b187c214620001975780638da5cb5b14620001c3578063abc8c7af14620001d5578063ae1b1d3214620001e9578063f2fde38b146200020057600080fd5b806319ac461414620000c85780632b078ef014620000f75780633d36adc514620001275780633f1daf2f146200013e578063457e5521146200016a578063514ed5581462000174575b600080fd5b620000df620000d93660046200090c565b62000217565b604051620000ee919062000933565b60405180910390f35b6200010e62000108366004620009f7565b6200028f565b6040516001600160a01b039091168152602001620000ee565b6200010e6200013836600462000ae2565b6200039a565b6200010e6200014f36600462000b11565b6004602052600090815260409020546001600160a01b031681565b620000df620003d3565b6200010e6200018536600462000b11565b62000437565b6200019562000462565b005b6200010e620001a836600462000b11565b6000908152600460205260409020546001600160a01b031690565b6000546001600160a01b03166200010e565b6002546200010e906001600160a01b031681565b6200010e620001fa366004620009f7565b6200047a565b62000195620002113660046200090c565b62000813565b6001600160a01b0381166000908152600360209081526040918290208054835181840281018401909452808452606093928301828280156200028357602002820191906000526020600020905b81546001600160a01b0316815260019091019060200180831162000264575b50505050509050919050565b60006200029b62000857565b60008989898989898989604051620002b390620008d6565b620002c698979695949392919062000b51565b604051809103906000f080158015620002e3573d6000803e3d6000fd5b506001805480820182557fb10e2d527612073b26eecdfd717e6a320cf44b4afac2b0732d9fcbe2b7fa0cf60180546001600160a01b038481166001600160a01b031992831681179093558e166000818152600360209081526040808320805497880181558352918190209095018054909316841790925590519182529293507f1a91c57e390e2b215ad4f17c283f3f4e2d8a1f2f6f16986800d7699df1a7605a910160405180910390a29998505050505050505050565b60036020528160005260406000208181548110620003b757600080fd5b6000918252602090912001546001600160a01b03169150829050565b606060018054806020026020016040519081016040528092919081815260200182805480156200042d57602002820191906000526020600020905b81546001600160a01b031681526001909101906020018083116200040e575b5050505050905090565b600181815481106200044857600080fd5b6000918252602090912001546001600160a01b0316905081565b6200046c62000857565b62000478600062000886565b565b60006200048662000857565b6000828152600460205260409020546001600160a01b031615620005005760405162461bcd60e51b815260206004820152602660248201527f496e737572616e636520616c72656164792065786973747320666f722074686960448201526573206974656d60d01b60648201526084015b60405180910390fd5b600254604051631a6f34a360e01b81526004810184905260009182916001600160a01b0390911690631a6f34a390602401600060405180830381865afa1580156200054f573d6000803e3d6000fd5b505050506040513d6000823e601f3d908101601f1916820160405262000579919081019062000c4c565b9a509a5050505050505050505080620006145760405162461bcd60e51b815260206004820152605060248201527f4974656d206e6f742079657420736f6c642c2063616e6e6f742070757263686160448201527f736520696e737572616e636520666f7220616e206974656d207468617420697360648201526f103cb2ba103a379031329039b7b6321760811b608482015260a401620004f7565b6001600160a01b03821633036200067a5760405162461bcd60e51b815260206004820152602360248201527f53656c6c65722063616e6e6f7420696e73757265207468656972206f776e206960448201526274656d60e81b6064820152608401620004f7565b60008b8b8b8b8b8b8b8b6040516200069290620008d6565b620006a598979695949392919062000b51565b604051809103906000f080158015620006c2573d6000803e3d6000fd5b5090506001819080600181540180825580915050600190039060005260206000200160009091909190916101000a8154816001600160a01b0302191690836001600160a01b03160217905550600360008d6001600160a01b03166001600160a01b03168152602001908152602001600020819080600181540180825580915050600190039060005260206000200160009091909190916101000a8154816001600160a01b0302191690836001600160a01b03160217905550806004600087815260200190815260200160002060006101000a8154816001600160a01b0302191690836001600160a01b03160217905550848c6001600160a01b03167f2c36a8aced442907469f78cc0d976f20bc0264453c7166809a9c062adf21638683604051620007fc91906001600160a01b0391909116815260200190565b60405180910390a39b9a5050505050505050505050565b6200081d62000857565b6001600160a01b0381166200084957604051631e4fbdf760e01b815260006004820152602401620004f7565b620008548162000886565b50565b6000546001600160a01b03163314620004785760405163118cdaa760e01b8152336004820152602401620004f7565b600080546001600160a01b038381166001600160a01b0319831681178455604051919092169283917f8be0079c531659141344cd1fd0a4f28419497f9722a3daafe3b4186f6b6457e09190a35050565b610d308062000d6083390190565b6001600160a01b03811681146200085457600080fd5b80356200090781620008e4565b919050565b6000602082840312156200091f57600080fd5b81356200092c81620008e4565b9392505050565b6020808252825182820181905260009190848201906040850190845b81811015620009765783516001600160a01b0316835292840192918401916001016200094f565b50909695505050505050565b634e487b7160e01b600052604160045260246000fd5b604051601f8201601f1916810167ffffffffffffffff81118282101715620009c457620009c462000982565b604052919050565b600067ffffffffffffffff821115620009e957620009e962000982565b50601f01601f191660200190565b600080600080600080600080610100898b03121562000a1557600080fd5b883562000a2281620008e4565b9750602089013562000a3481620008e4565b965060408901359550606089013594506080890135935060a089013567ffffffffffffffff81111562000a6657600080fd5b8901601f81018b1362000a7857600080fd5b803562000a8f62000a8982620009cc565b62000998565b8181528c602083850101111562000aa557600080fd5b8160208401602083013760006020838301015280955050505062000acc60c08a01620008fa565b915060e089013590509295985092959890939650565b6000806040838503121562000af657600080fd5b823562000b0381620008e4565b946020939093013593505050565b60006020828403121562000b2457600080fd5b5035919050565b60005b8381101562000b4857818101518382015260200162000b2e565b50506000910152565b600061010060018060a01b03808c168452808b1660208501528960408501528860608501528760808501528160a085015286518083860152610120925062000ba08184870160208b0162000b2b565b951660c084015260e083019390935250601f909201601f1916909101019695505050505050565b600082601f83011262000bd957600080fd5b815162000bea62000a8982620009cc565b81815284602083860101111562000c0057600080fd5b62000c1382602083016020870162000b2b565b949350505050565b805180151581146200090757600080fd5b805161ffff811681146200090757600080fd5b80516200090781620008e4565b60008060008060008060008060008060006101608c8e03121562000c6f57600080fd5b8b519a5060208c015167ffffffffffffffff81111562000c8e57600080fd5b62000c9c8e828f0162000bc7565b9a505060408c0151985060608c0151975060808c015167ffffffffffffffff81111562000cc857600080fd5b62000cd68e828f0162000bc7565b97505060a08c015167ffffffffffffffff81111562000cf457600080fd5b62000d028e828f0162000bc7565b96505060c08c0151945062000d1a60e08d0162000c1b565b935062000d2b6101008d0162000c2c565b925062000d3c6101208d0162000c3f565b915062000d4d6101408d0162000c1b565b90509295989b509295989b909396995056fe60806040523480156200001157600080fd5b5060405162000d3038038062000d30833981016040819052620000349162000109565b6001600081905580546001600160a01b03808b166001600160a01b03199283161790925560028054928a1692909116919091179055600386905560048590556008620000818482620002d3565b50600a9390935560006006819055600755600980546001600160a01b039092166301000000026001600160b81b031990921691909117905550600555506200039f92505050565b6001600160a01b0381168114620000de57600080fd5b50565b8051620000ee81620000c8565b919050565b634e487b7160e01b600052604160045260246000fd5b600080600080600080600080610100898b0312156200012757600080fd5b88516200013481620000c8565b809850506020808a01516200014981620000c8565b60408b015160608c015160808d015160a08e0151939b50919950975095506001600160401b03808211156200017d57600080fd5b818c0191508c601f8301126200019257600080fd5b815181811115620001a757620001a7620000f3565b604051601f8201601f19908116603f01168101908382118183101715620001d257620001d2620000f3565b816040528281528f86848701011115620001eb57600080fd5b600093505b828410156200020f5784840186015181850187015292850192620001f0565b60008684830101528098505050505050506200022e60c08a01620000e1565b915060e089015190509295985092959890939650565b600181811c908216806200025957607f821691505b6020821081036200027a57634e487b7160e01b600052602260045260246000fd5b50919050565b601f821115620002ce57600081815260208120601f850160051c81016020861015620002a95750805b601f850160051c820191505b81811015620002ca57828155600101620002b5565b5050505b505050565b81516001600160401b03811115620002ef57620002ef620000f3565b620003078162000300845462000244565b8462000280565b602080601f8311600181146200033f5760008415620003265750858301515b600019600386901b1c1916600185901b178555620002ca565b600085815260208120601f198616915b8281101562000370578886015182559484019460019091019084016200034f565b50858210156200038f5787850151600019600388901b60f8161c191681555b5050505050600190811b01905550565b61098180620003af6000396000f3fe6080604052600436106100f35760003560e01c806378e979251161008a578063dbc837c511610059578063dbc837c514610257578063e0a73a9314610277578063e834a8341461028d578063eebb1363146102ad57600080fd5b806378e97925146101ea578063af38d75714610200578063b7cc43471461021f578063da36fa5e1461024157600080fd5b80633197cbb6116100c65780633197cbb61461016a5780634efa82b6146101805780635c52e51e146101bf57806367c0d00f146101d457600080fd5b806302fb0c5e146100f85780630a5cb639146101275780630fb5a6b41461013e57806329c08ba214610162575b600080fd5b34801561010457600080fd5b506009546101129060ff1681565b60405190151581526020015b60405180910390f35b34801561013357600080fd5b5061013c6102cd565b005b34801561014a57600080fd5b50610154600a5481565b60405190815260200161011e565b61013c6103b6565b34801561017657600080fd5b5061015460075481565b34801561018c57600080fd5b506009546101a790630100000090046001600160a01b031681565b6040516001600160a01b03909116815260200161011e565b3480156101cb57600080fd5b5061013c610513565b3480156101e057600080fd5b5061015460045481565b3480156101f657600080fd5b5061015460065481565b34801561020c57600080fd5b5060095461011290610100900460ff1681565b34801561022b57600080fd5b5061023461079c565b60405161011e9190610854565b34801561024d57600080fd5b5061015460055481565b34801561026357600080fd5b506002546101a7906001600160a01b031681565b34801561028357600080fd5b5061015460035481565b34801561029957600080fd5b506009546101129062010000900460ff1681565b3480156102b957600080fd5b506001546101a7906001600160a01b031681565b6102d561082a565b60095460ff166103205760405162461bcd60e51b8152602060048201526011602482015270506f6c696379206e6f742061637469766560781b60448201526064015b60405180910390fd5b6007544211156103635760405162461bcd60e51b815260206004820152600e60248201526d141bdb1a58de48195e1c1a5c995960921b6044820152606401610317565b6009805461ff0019166101001790556001546040516001600160a01b03909116907fb9487cd02a7e98944316d31856229b0cc7071fb26d49b60dae74673bd231459a90600090a26103b46001600055565b565b6001546001600160a01b031633146104025760405162461bcd60e51b815260206004820152600f60248201526e139bdd081d1a19481a5b9cdd5c9959608a1b6044820152606401610317565b61040a61082a565b60095460ff16156104515760405162461bcd60e51b8152602060048201526011602482015270105b1c9958591e481858dd1a5d985d1959607a1b6044820152606401610317565b60035434146104a25760405162461bcd60e51b815260206004820152601860248201527f496e636f7272656374207072656d69756d20616d6f756e7400000000000000006044820152606401610317565b42600655600a546104b690620151806108b8565b6104c090426108d5565b6007556009805460ff19166001908117909155546040516001600160a01b03909116907fa5614451a3c2c9884f17850964e40081c39ad6b63a0c92ef5e3eee6c5c25ae5a90600090a26103b46001600055565b61051b61082a565b6001546001600160a01b031633146105675760405162461bcd60e51b815260206004820152600f60248201526e139bdd081d1a19481a5b9cdd5c9959608a1b6044820152606401610317565b600954610100900460ff166105b25760405162461bcd60e51b8152602060048201526011602482015270139bdd0818db185a5b58589b19481e595d607a1b6044820152606401610317565b60095462010000900460ff16156105fd5760405162461bcd60e51b815260206004820152600f60248201526e105b1c9958591e4818db185a5b5959608a1b6044820152606401610317565b6009805462ff00001916620100001790819055630100000090046001600160a01b03166106c7576001546004546040516000926001600160a01b031691908381818185875af1925050503d8060008114610673576040519150601f19603f3d011682016040523d82523d6000602084013e610678565b606091505b50509050806106c15760405162461bcd60e51b815260206004820152601560248201527411985a5b1959081d1bc81cd95b99081c185e5bdd5d605a1b6044820152606401610317565b5061074d565b6009546001546004805460405163a9059cbb60e01b81526001600160a01b039384169281019290925260248201526301000000909204169063a9059cbb906044016020604051808303816000875af1158015610727573d6000803e3d6000fd5b505050506040513d601f19601f8201168201806040525081019061074b91906108e8565b505b6001546004546040519081526001600160a01b03909116907fa413d9a7a769e2fb98933cfe1a5b28db814e29b9cc4ba5aa71ac46d1b6d5e68f9060200160405180910390a26103b46001600055565b600880546107a990610911565b80601f01602080910402602001604051908101604052809291908181526020018280546107d590610911565b80156108225780601f106107f757610100808354040283529160200191610822565b820191906000526020600020905b81548152906001019060200180831161080557829003601f168201915b505050505081565b60026000540361084d57604051633ee5aeb560e01b815260040160405180910390fd5b6002600055565b600060208083528351808285015260005b8181101561088157858101830151858201604001528201610865565b506000604082860101526040601f19601f8301168501019250505092915050565b634e487b7160e01b600052601160045260246000fd5b80820281158282048414176108cf576108cf6108a2565b92915050565b808201808211156108cf576108cf6108a2565b6000602082840312156108fa57600080fd5b8151801515811461090a57600080fd5b9392505050565b600181811c9082168061092557607f821691505b60208210810361094557634e487b7160e01b600052602260045260246000fd5b5091905056fea2646970667358221220f6b882d4bf6b7840d22debe1fb12105c97ae41609e24461384e79112460b1e6d64736f6c63430008140033a2646970667358221220b5104c97def42570c178c7c0080ca57f63128b774c547f017bf0c2ffe0ee117664736f6c63430008140033",
  "linkReferences": {},
  "deployedLinkReferences": {}
}