{
  "_format": "hh-sol-artifact-1",
  "contractName": "InsurancePolicy",
  "sourceName": "contracts/InsurancePolicy.sol",
  "abi": [
    {
      "inputs": [
        {
          "internalType": "address payable",
          "name": "_insured",
          "type": "address"
        },
        {
          "internalType": "address",
          "name": "_insurer",
          "type": "address"
        },
        {
          "internalType": "uint256",
          "name": "_premium",
          "type": "uint256"
        },
        {
          "internalType": "uint256",
          "name": "_coverageAmount",
          "type": "uint256"
        },
        {
          "internalType": "uint256",
          "name": "_duration",
          "type": "uint256"
        },
        {
          "internalType": "string",
          "name": "_policyType",
          "type": "string"
        },
        {
          "internalType": "address",
          "name": "_payoutToken",
          "type": "address"
        },
        {
          "internalType": "uint256",
          "name": "_marketPlaceItemId",
          "type": "uint256"
        }
      ],
      "stateMutability": "nonpayable",
      "type": "constructor"
    },
    {
      "inputs": [],
      "name": "ReentrancyGuardReentrantCall",
      "type": "error"
    },
    {
      "anonymous": false,
      "inputs": [
        {
          "indexed": true,
          "internalType": "address",
          "name": "user",
          "type": "address"
        }
      ],
      "name": "ClaimTriggered",
      "type": "event"
    },
    {
      "anonymous": false,
      "inputs": [
        {
          "indexed": true,
          "internalType": "address",
          "name": "user",
          "type": "address"
        },
        {
          "indexed": false,
          "internalType": "uint256",
          "name": "amount",
          "type": "uint256"
        }
      ],
      "name": "PayoutProcessed",
      "type": "event"
    },
    {
      "anonymous": false,
      "inputs": [
        {
          "indexed": true,
          "internalType": "address",
          "name": "user",
          "type": "address"
        }
      ],
      "name": "PolicyActivated",
      "type": "event"
    },
    {
      "inputs": [],
      "name": "active",
      "outputs": [
        {
          "internalType": "bool",
          "name": "",
          "type": "bool"
        }
      ],
      "stateMutability": "view",
      "type": "function"
    },
    {
      "inputs": [],
      "name": "claimable",
      "outputs": [
        {
          "internalType": "bool",
          "name": "",
          "type": "bool"
        }
      ],
      "stateMutability": "view",
      "type": "function"
    },
    {
      "inputs": [],
      "name": "claimed",
      "outputs": [
        {
          "internalType": "bool",
          "name": "",
          "type": "bool"
        }
      ],
      "stateMutability": "view",
      "type": "function"
    },
    {
      "inputs": [],
      "name": "coverageAmount",
      "outputs": [
        {
          "internalType": "uint256",
          "name": "",
          "type": "uint256"
        }
      ],
      "stateMutability": "view",
      "type": "function"
    },
    {
      "inputs": [],
      "name": "duration",
      "outputs": [
        {
          "internalType": "uint256",
          "name": "",
          "type": "uint256"
        }
      ],
      "stateMutability": "view",
      "type": "function"
    },
    {
      "inputs": [],
      "name": "endTime",
      "outputs": [
        {
          "internalType": "uint256",
          "name": "",
          "type": "uint256"
        }
      ],
      "stateMutability": "view",
      "type": "function"
    },
    {
      "inputs": [],
      "name": "insured",
      "outputs": [
        {
          "internalType": "address",
          "name": "",
          "type": "address"
        }
      ],
      "stateMutability": "view",
      "type": "function"
    },
    {
      "inputs": [],
      "name": "insurer",
      "outputs": [
        {
          "internalType": "address",
          "name": "",
          "type": "address"
        }
      ],
      "stateMutability": "view",
      "type": "function"
    },
    {
      "inputs": [],
      "name": "markClaimable",
      "outputs": [],
      "stateMutability": "nonpayable",
      "type": "function"
    },
    {
      "inputs": [],
      "name": "marketPlaceItemId",
      "outputs": [
        {
          "internalType": "uint256",
          "name": "",
          "type": "uint256"
        }
      ],
      "stateMutability": "view",
      "type": "function"
    },
    {
      "inputs": [],
      "name": "payPremium",
      "outputs": [],
      "stateMutability": "payable",
      "type": "function"
    },
    {
      "inputs": [],
      "name": "payoutToken",
      "outputs": [
        {
          "internalType": "address",
          "name": "",
          "type": "address"
        }
      ],
      "stateMutability": "view",
      "type": "function"
    },
    {
      "inputs": [],
      "name": "policyType",
      "outputs": [
        {
          "internalType": "string",
          "name": "",
          "type": "string"
        }
      ],
      "stateMutability": "view",
      "type": "function"
    },
    {
      "inputs": [],
      "name": "premium",
      "outputs": [
        {
          "internalType": "uint256",
          "name": "",
          "type": "uint256"
        }
      ],
      "stateMutability": "view",
      "type": "function"
    },
    {
      "inputs": [],
      "name": "processPayout",
      "outputs": [],
      "stateMutability": "nonpayable",
      "type": "function"
    },
    {
      "inputs": [],
      "name": "startTime",
      "outputs": [
        {
          "internalType": "uint256",
          "name": "",
          "type": "uint256"
        }
      ],
      "stateMutability": "view",
      "type": "function"
    }
  ],
  "bytecode": "0x60806040523480156200001157600080fd5b5060405162000d3038038062000d30833981016040819052620000349162000109565b6001600081905580546001600160a01b03808b166001600160a01b03199283161790925560028054928a1692909116919091179055600386905560048590556008620000818482620002d3565b50600a9390935560006006819055600755600980546001600160a01b039092166301000000026001600160b81b031990921691909117905550600555506200039f92505050565b6001600160a01b0381168114620000de57600080fd5b50565b8051620000ee81620000c8565b919050565b634e487b7160e01b600052604160045260246000fd5b600080600080600080600080610100898b0312156200012757600080fd5b88516200013481620000c8565b809850506020808a01516200014981620000c8565b60408b015160608c015160808d015160a08e0151939b50919950975095506001600160401b03808211156200017d57600080fd5b818c0191508c601f8301126200019257600080fd5b815181811115620001a757620001a7620000f3565b604051601f8201601f19908116603f01168101908382118183101715620001d257620001d2620000f3565b816040528281528f86848701011115620001eb57600080fd5b600093505b828410156200020f5784840186015181850187015292850192620001f0565b60008684830101528098505050505050506200022e60c08a01620000e1565b915060e089015190509295985092959890939650565b600181811c908216806200025957607f821691505b6020821081036200027a57634e487b7160e01b600052602260045260246000fd5b50919050565b601f821115620002ce57600081815260208120601f850160051c81016020861015620002a95750805b601f850160051c820191505b81811015620002ca57828155600101620002b5565b5050505b505050565b81516001600160401b03811115620002ef57620002ef620000f3565b620003078162000300845462000244565b8462000280565b602080601f8311600181146200033f5760008415620003265750858301515b600019600386901b1c1916600185901b178555620002ca565b600085815260208120601f198616915b8281101562000370578886015182559484019460019091019084016200034f565b50858210156200038f5787850151600019600388901b60f8161c191681555b5050505050600190811b01905550565b61098180620003af6000396000f3fe6080604052600436106100f35760003560e01c806378e979251161008a578063dbc837c511610059578063dbc837c514610257578063e0a73a9314610277578063e834a8341461028d578063eebb1363146102ad57600080fd5b806378e97925146101ea578063af38d75714610200578063b7cc43471461021f578063da36fa5e1461024157600080fd5b80633197cbb6116100c65780633197cbb61461016a5780634efa82b6146101805780635c52e51e146101bf57806367c0d00f146101d457600080fd5b806302fb0c5e146100f85780630a5cb639146101275780630fb5a6b41461013e57806329c08ba214610162575b600080fd5b34801561010457600080fd5b506009546101129060ff1681565b60405190151581526020015b60405180910390f35b34801561013357600080fd5b5061013c6102cd565b005b34801561014a57600080fd5b50610154600a5481565b60405190815260200161011e565b61013c6103b6565b34801561017657600080fd5b5061015460075481565b34801561018c57600080fd5b506009546101a790630100000090046001600160a01b031681565b6040516001600160a01b03909116815260200161011e565b3480156101cb57600080fd5b5061013c610513565b3480156101e057600080fd5b5061015460045481565b3480156101f657600080fd5b5061015460065481565b34801561020c57600080fd5b5060095461011290610100900460ff1681565b34801561022b57600080fd5b5061023461079c565b60405161011e9190610854565b34801561024d57600080fd5b5061015460055481565b34801561026357600080fd5b506002546101a7906001600160a01b031681565b34801561028357600080fd5b5061015460035481565b34801561029957600080fd5b506009546101129062010000900460ff1681565b3480156102b957600080fd5b506001546101a7906001600160a01b031681565b6102d561082a565b60095460ff166103205760405162461bcd60e51b8152602060048201526011602482015270506f6c696379206e6f742061637469766560781b60448201526064015b60405180910390fd5b6007544211156103635760405162461bcd60e51b815260206004820152600e60248201526d141bdb1a58de48195e1c1a5c995960921b6044820152606401610317565b6009805461ff0019166101001790556001546040516001600160a01b03909116907fb9487cd02a7e98944316d31856229b0cc7071fb26d49b60dae74673bd231459a90600090a26103b46001600055565b565b6001546001600160a01b031633146104025760405162461bcd60e51b815260206004820152600f60248201526e139bdd081d1a19481a5b9cdd5c9959608a1b6044820152606401610317565b61040a61082a565b60095460ff16156104515760405162461bcd60e51b8152602060048201526011602482015270105b1c9958591e481858dd1a5d985d1959607a1b6044820152606401610317565b60035434146104a25760405162461bcd60e51b815260206004820152601860248201527f496e636f7272656374207072656d69756d20616d6f756e7400000000000000006044820152606401610317565b42600655600a546104b690620151806108b8565b6104c090426108d5565b6007556009805460ff19166001908117909155546040516001600160a01b03909116907fa5614451a3c2c9884f17850964e40081c39ad6b63a0c92ef5e3eee6c5c25ae5a90600090a26103b46001600055565b61051b61082a565b6001546001600160a01b031633146105675760405162461bcd60e51b815260206004820152600f60248201526e139bdd081d1a19481a5b9cdd5c9959608a1b6044820152606401610317565b600954610100900460ff166105b25760405162461bcd60e51b8152602060048201526011602482015270139bdd0818db185a5b58589b19481e595d607a1b6044820152606401610317565b60095462010000900460ff16156105fd5760405162461bcd60e51b815260206004820152600f60248201526e105b1c9958591e4818db185a5b5959608a1b6044820152606401610317565b6009805462ff00001916620100001790819055630100000090046001600160a01b03166106c7576001546004546040516000926001600160a01b031691908381818185875af1925050503d8060008114610673576040519150601f19603f3d011682016040523d82523d6000602084013e610678565b606091505b50509050806106c15760405162461bcd60e51b815260206004820152601560248201527411985a5b1959081d1bc81cd95b99081c185e5bdd5d605a1b6044820152606401610317565b5061074d565b6009546001546004805460405163a9059cbb60e01b81526001600160a01b039384169281019290925260248201526301000000909204169063a9059cbb906044016020604051808303816000875af1158015610727573d6000803e3d6000fd5b505050506040513d601f19601f8201168201806040525081019061074b91906108e8565b505b6001546004546040519081526001600160a01b03909116907fa413d9a7a769e2fb98933cfe1a5b28db814e29b9cc4ba5aa71ac46d1b6d5e68f9060200160405180910390a26103b46001600055565b600880546107a990610911565b80601f01602080910402602001604051908101604052809291908181526020018280546107d590610911565b80156108225780601f106107f757610100808354040283529160200191610822565b820191906000526020600020905b81548152906001019060200180831161080557829003601f168201915b505050505081565b60026000540361084d57604051633ee5aeb560e01b815260040160405180910390fd5b6002600055565b600060208083528351808285015260005b8181101561088157858101830151858201604001528201610865565b506000604082860101526040601f19601f8301168501019250505092915050565b634e487b7160e01b600052601160045260246000fd5b80820281158282048414176108cf576108cf6108a2565b92915050565b808201808211156108cf576108cf6108a2565b6000602082840312156108fa57600080fd5b8151801515811461090a57600080fd5b9392505050565b600181811c9082168061092557607f821691505b60208210810361094557634e487b7160e01b600052602260045260246000fd5b5091905056fea2646970667358221220f6b882d4bf6b7840d22debe1fb12105c97ae41609e24461384e79112460b1e6d64736f6c63430008140033",
  "linkReferences": {},
  "deployedLinkReferences": {}
}