{
  "_format": "hh-sol-artifact-1",
  "contractName": "MarketPlace",
  "sourceName": "contracts/Items.sol",
  "abi": [
    {
      "inputs": [
        {
          "internalType": "address payable",
          "name": "marketOwner",
          "type": "address"
        }
      ],
      "stateMutability": "nonpayable",
      "type": "constructor"
    },
    {
      "anonymous": false,
      "inputs": [
        {
          "indexed": true,
          "internalType": "uint256",
          "name": "itemId",
          "type": "uint256"
        },
        {
          "indexed": false,
          "internalType": "string",
          "name": "name",
          "type": "string"
        },
        {
          "indexed": true,
          "internalType": "uint16",
          "name": "sellerId",
          "type": "uint16"
        },
        {
          "indexed": false,
          "internalType": "uint256",
          "name": "price",
          "type": "uint256"
        },
        {
          "indexed": false,
          "internalType": "string",
          "name": "description",
          "type": "string"
        },
        {
          "indexed": false,
          "internalType": "uint256",
          "name": "createdAt",
          "type": "uint256"
        }
      ],
      "name": "ItemCreated",
      "type": "event"
    },
    {
      "anonymous": false,
      "inputs": [
        {
          "indexed": true,
          "internalType": "uint256",
          "name": "itemId",
          "type": "uint256"
        },
        {
          "indexed": true,
          "internalType": "address",
          "name": "seller",
          "type": "address"
        }
      ],
      "name": "ItemDeleted",
      "type": "event"
    },
    {
      "anonymous": false,
      "inputs": [
        {
          "indexed": true,
          "internalType": "uint256",
          "name": "itemId",
          "type": "uint256"
        },
        {
          "indexed": true,
          "internalType": "uint16",
          "name": "sellerId",
          "type": "uint16"
        },
        {
          "indexed": true,
          "internalType": "address",
          "name": "buyer",
          "type": "address"
        },
        {
          "indexed": false,
          "internalType": "uint256",
          "name": "price",
          "type": "uint256"
        },
        {
          "indexed": false,
          "internalType": "uint256",
          "name": "soldAt",
          "type": "uint256"
        }
      ],
      "name": "ItemSold",
      "type": "event"
    },
    {
      "anonymous": false,
      "inputs": [
        {
          "indexed": true,
          "internalType": "uint256",
          "name": "itemId",
          "type": "uint256"
        },
        {
          "indexed": false,
          "internalType": "string",
          "name": "name",
          "type": "string"
        },
        {
          "indexed": false,
          "internalType": "uint256",
          "name": "price",
          "type": "uint256"
        },
        {
          "indexed": false,
          "internalType": "string",
          "name": "description",
          "type": "string"
        }
      ],
      "name": "ItemUpdated",
      "type": "event"
    },
    {
      "inputs": [
        {
          "internalType": "string",
          "name": "_name",
          "type": "string"
        },
        {
          "internalType": "string",
          "name": "_description",
          "type": "string"
        },
        {
          "internalType": "uint16",
          "name": "_sellerId",
          "type": "uint16"
        },
        {
          "internalType": "uint256",
          "name": "_price",
          "type": "uint256"
        },
        {
          "internalType": "string",
          "name": "_mainImg",
          "type": "string"
        },
        {
          "internalType": "bool",
          "name": "_isUsed",
          "type": "bool"
        },
        {
          "internalType": "uint16",
          "name": "_monthsOfUsage",
          "type": "uint16"
        }
      ],
      "name": "CreateItem",
      "outputs": [],
      "stateMutability": "nonpayable",
      "type": "function"
    },
    {
      "inputs": [
        {
          "internalType": "uint256",
          "name": "_itemId",
          "type": "uint256"
        }
      ],
      "name": "deleteItem",
      "outputs": [],
      "stateMutability": "nonpayable",
      "type": "function"
    },
    {
      "inputs": [
        {
          "internalType": "uint256",
          "name": "_itemId",
          "type": "uint256"
        }
      ],
      "name": "fetchItemById",
      "outputs": [
        {
          "components": [
            {
              "internalType": "uint256",
              "name": "itemId",
              "type": "uint256"
            },
            {
              "internalType": "string",
              "name": "name",
              "type": "string"
            },
            {
              "internalType": "uint16",
              "name": "sellerId",
              "type": "uint16"
            },
            {
              "internalType": "uint256",
              "name": "price",
              "type": "uint256"
            },
            {
              "internalType": "string",
              "name": "mainImage",
              "type": "string"
            },
            {
              "internalType": "string",
              "name": "description",
              "type": "string"
            },
            {
              "internalType": "uint256",
              "name": "createdAt",
              "type": "uint256"
            },
            {
              "internalType": "bool",
              "name": "isUsed",
              "type": "bool"
            },
            {
              "internalType": "uint16",
              "name": "monthsOfUsage",
              "type": "uint16"
            },
            {
              "internalType": "address",
              "name": "seller",
              "type": "address"
            },
            {
              "internalType": "bool",
              "name": "isSold",
              "type": "bool"
            }
          ],
          "internalType": "struct MarketPlace.Item",
          "name": "",
          "type": "tuple"
        }
      ],
      "stateMutability": "view",
      "type": "function"
    },
    {
      "inputs": [],
      "name": "fetchMarketplaceItems",
      "outputs": [
        {
          "components": [
            {
              "internalType": "uint256",
              "name": "itemId",
              "type": "uint256"
            },
            {
              "internalType": "string",
              "name": "name",
              "type": "string"
            },
            {
              "internalType": "uint16",
              "name": "sellerId",
              "type": "uint16"
            },
            {
              "internalType": "uint256",
              "name": "price",
              "type": "uint256"
            },
            {
              "internalType": "string",
              "name": "mainImage",
              "type": "string"
            },
            {
              "internalType": "string",
              "name": "description",
              "type": "string"
            },
            {
              "internalType": "uint256",
              "name": "createdAt",
              "type": "uint256"
            },
            {
              "internalType": "bool",
              "name": "isUsed",
              "type": "bool"
            },
            {
              "internalType": "uint16",
              "name": "monthsOfUsage",
              "type": "uint16"
            },
            {
              "internalType": "address",
              "name": "seller",
              "type": "address"
            },
            {
              "internalType": "bool",
              "name": "isSold",
              "type": "bool"
            }
          ],
          "internalType": "struct MarketPlace.Item[]",
          "name": "",
          "type": "tuple[]"
        }
      ],
      "stateMutability": "view",
      "type": "function"
    },
    {
      "inputs": [
        {
          "internalType": "uint256",
          "name": "",
          "type": "uint256"
        }
      ],
      "name": "idToMarketplace",
      "outputs": [
        {
          "internalType": "uint256",
          "name": "itemId",
          "type": "uint256"
        },
        {
          "internalType": "string",
          "name": "name",
          "type": "string"
        },
        {
          "internalType": "uint16",
          "name": "sellerId",
          "type": "uint16"
        },
        {
          "internalType": "uint256",
          "name": "price",
          "type": "uint256"
        },
        {
          "internalType": "string",
          "name": "mainImage",
          "type": "string"
        },
        {
          "internalType": "string",
          "name": "description",
          "type": "string"
        },
        {
          "internalType": "uint256",
          "name": "createdAt",
          "type": "uint256"
        },
        {
          "internalType": "bool",
          "name": "isUsed",
          "type": "bool"
        },
        {
          "internalType": "uint16",
          "name": "monthsOfUsage",
          "type": "uint16"
        },
        {
          "internalType": "address",
          "name": "seller",
          "type": "address"
        },
        {
          "internalType": "bool",
          "name": "isSold",
          "type": "bool"
        }
      ],
      "stateMutability": "view",
      "type": "function"
    },
    {
      "inputs": [
        {
          "internalType": "uint256",
          "name": "_itemId",
          "type": "uint256"
        }
      ],
      "name": "purchaseItem",
      "outputs": [],
      "stateMutability": "payable",
      "type": "function"
    },
    {
      "inputs": [
        {
          "internalType": "uint256",
          "name": "_itemId",
          "type": "uint256"
        },
        {
          "internalType": "string",
          "name": "_name",
          "type": "string"
        },
        {
          "internalType": "uint256",
          "name": "_price",
          "type": "uint256"
        },
        {
          "internalType": "string",
          "name": "_description",
          "type": "string"
        }
      ],
      "name": "updateItem",
      "outputs": [],
      "stateMutability": "nonpayable",
      "type": "function"
    }
  ],
  "bytecode": "0x608060405234801561001057600080fd5b5060405161178f38038061178f83398101604081905261002f91610054565b600180546001600160a01b0319166001600160a01b0392909216919091179055610084565b60006020828403121561006657600080fd5b81516001600160a01b038116811461007d57600080fd5b9392505050565b6116fc806100936000396000f3fe6080604052600436106100705760003560e01c8063d38ea5bf1161004e578063d38ea5bf146100e2578063d7d5ca11146100f5578063db16acff14610115578063f7fc28051461014257600080fd5b806301ae591a146100755780631c13e69f146100a0578063654fc833146100c2575b600080fd5b34801561008157600080fd5b5061008a610179565b604051610097919061115d565b60405180910390f35b3480156100ac57600080fd5b506100c06100bb366004611279565b610493565b005b3480156100ce57600080fd5b506100c06100dd366004611344565b6106a7565b6100c06100f0366004611344565b610803565b34801561010157600080fd5b506100c061011036600461135d565b610981565b34801561012157600080fd5b50610135610130366004611344565b610ae4565b60405161009791906113d4565b34801561014e57600080fd5b5061016261015d366004611344565b610d7a565b6040516100979b9a999897969594939291906113ee565b60606000805467ffffffffffffffff811115610197576101976111bf565b6040519080825280602002602001820160405280156101d057816020015b6101bd610f85565b8152602001906001900390816101b55790505b509050600060015b600054811161048b57600081815260026020526040902060070154600160b81b900460ff166104795760026000828152602001908152602001600020604051806101600160405290816000820154815260200160018201805461023a90611480565b80601f016020809104026020016040519081016040528092919081815260200182805461026690611480565b80156102b35780601f10610288576101008083540402835291602001916102b3565b820191906000526020600020905b81548152906001019060200180831161029657829003601f168201915b5050509183525050600282015461ffff166020820152600382015460408201526004820180546060909201916102e890611480565b80601f016020809104026020016040519081016040528092919081815260200182805461031490611480565b80156103615780601f1061033657610100808354040283529160200191610361565b820191906000526020600020905b81548152906001019060200180831161034457829003601f168201915b5050505050815260200160058201805461037a90611480565b80601f01602080910402602001604051908101604052809291908181526020018280546103a690611480565b80156103f35780601f106103c8576101008083540402835291602001916103f3565b820191906000526020600020905b8154815290600101906020018083116103d657829003601f168201915b50505091835250506006820154602082015260079091015460ff8082161515604084015261ffff61010083041660608401526001600160a01b0363010000008304166080840152600160b81b90910416151560a090910152835184908490811061045f5761045f6114ba565b60200260200101819052508180610475906114e6565b9250505b80610483816114e6565b9150506101d8565b509092915050565b600084116104e85760405162461bcd60e51b815260206004820152601c60248201527f5072696365206d7573742062652067726561746572207468616e20300000000060448201526064015b60405180910390fd5b60016000808282546104fa91906114ff565b909155505060008054604080516101608101825282815260208082018c815261ffff808c1684860152606084018b9052608084018a905260a084018d90524260c085015288151560e0850152871661010084015233610120840152610140830186905284865260029091529190932083518155905191929160018201906105819082611567565b50604082015160028201805461ffff191661ffff90921691909117905560608201516003820155608082015160048201906105bc9082611567565b5060a082015160058201906105d19082611567565b5060c0820151600682015560e08201516007909101805461010080850151610120860151610140909601511515600160b81b0260ff60b81b196001600160a01b03909716630100000002969096166301000000600160c01b031961ffff92831690930262ffff00199615159690961662ffffff1990941693909317949094171617929092179091556040519087169082907f9befc9da30b62b64457a48e3e4abd4ebf6a9e03cf0807685d8b8079fa2f5ef7d90610695908c908a908d904290611627565b60405180910390a35050505050505050565b6000811180156106b957506000548111155b6106d55760405162461bcd60e51b81526004016104df90611664565b60008181526002602052604090206007810154630100000090046001600160a01b031633148061070f57506001546001600160a01b031633145b6107665760405162461bcd60e51b815260206004820152602260248201527f4e6f7420617574686f72697a656420746f2064656c6574652074686973206974604482015261656d60f01b60648201526084016104df565b6000828152600260205260408120818155906107856001830182610ff4565b60028201805461ffff191690556000600383018190556107a9906004840190610ff4565b6107b7600583016000610ff4565b50600060068201819055600790910180546001600160c01b0319169055604051339184917f9b589d4dfb81ae7acb7d4f028ed8be6d247247fe765ebbcd79279e3a28790f2e9190a35050565b60008111801561081557506000548111155b6108315760405162461bcd60e51b81526004016104df90611664565b60008181526002602052604090206007810154600160b81b900460ff161561088f5760405162461bcd60e51b8152602060048201526011602482015270125d195b48185b1c9958591e481cdbdb19607a1b60448201526064016104df565b80600301543410156108d85760405162461bcd60e51b8152602060048201526012602482015271496e73756666696369656e742066756e647360701b60448201526064016104df565b60078101546040516001600160a01b03630100000090920491909116903480156108fc02916000818181858888f1935050505015801561091c573d6000803e3d6000fd5b5060078101805460ff60b81b1916600160b81b1790556002810154600382015460408051918252426020830152339261ffff169185917f5ad824f63dab34cdcd5fd8124ca4042aa3bb17114913e359d1f34173f5eea489910160405180910390a45050565b60008411801561099357506000548411155b6109af5760405162461bcd60e51b81526004016104df90611664565b60008481526002602052604090206007810154630100000090046001600160a01b03163314610a205760405162461bcd60e51b815260206004820152601b60248201527f4f6e6c792073656c6c65722063616e20757064617465206974656d000000000060448201526064016104df565b6007810154600160b81b900460ff1615610a7c5760405162461bcd60e51b815260206004820152601760248201527f43616e6e6f742075706461746520736f6c64206974656d00000000000000000060448201526064016104df565b60018101610a8a8582611567565b506003810183905560058101610aa08382611567565b50847f7499cdcfce8eebad9fb278ae07f8e26ca192cb172efdec84da01a8cdb25041d7858585604051610ad593929190611691565b60405180910390a25050505050565b610aec610f85565b600082815260026020526040902060070154630100000090046001600160a01b0316610b2a5760405162461bcd60e51b81526004016104df90611664565b600260008381526020019081526020016000206040518061016001604052908160008201548152602001600182018054610b6390611480565b80601f0160208091040260200160405190810160405280929190818152602001828054610b8f90611480565b8015610bdc5780601f10610bb157610100808354040283529160200191610bdc565b820191906000526020600020905b815481529060010190602001808311610bbf57829003601f168201915b5050509183525050600282015461ffff16602082015260038201546040820152600482018054606090920191610c1190611480565b80601f0160208091040260200160405190810160405280929190818152602001828054610c3d90611480565b8015610c8a5780601f10610c5f57610100808354040283529160200191610c8a565b820191906000526020600020905b815481529060010190602001808311610c6d57829003601f168201915b50505050508152602001600582018054610ca390611480565b80601f0160208091040260200160405190810160405280929190818152602001828054610ccf90611480565b8015610d1c5780601f10610cf157610100808354040283529160200191610d1c565b820191906000526020600020905b815481529060010190602001808311610cff57829003601f168201915b50505091835250506006820154602082015260079091015460ff8082161515604084015261ffff61010083041660608401526001600160a01b0363010000008304166080840152600160b81b90910416151560a09091015292915050565b60026020526000908152604090208054600182018054919291610d9c90611480565b80601f0160208091040260200160405190810160405280929190818152602001828054610dc890611480565b8015610e155780601f10610dea57610100808354040283529160200191610e15565b820191906000526020600020905b815481529060010190602001808311610df857829003601f168201915b5050505060028301546003840154600485018054949561ffff9093169491935090610e3f90611480565b80601f0160208091040260200160405190810160405280929190818152602001828054610e6b90611480565b8015610eb85780601f10610e8d57610100808354040283529160200191610eb8565b820191906000526020600020905b815481529060010190602001808311610e9b57829003601f168201915b505050505090806005018054610ecd90611480565b80601f0160208091040260200160405190810160405280929190818152602001828054610ef990611480565b8015610f465780601f10610f1b57610100808354040283529160200191610f46565b820191906000526020600020905b815481529060010190602001808311610f2957829003601f168201915b505050600684015460079094015492939260ff808216935061ffff61010083041692506001600160a01b03630100000083041691600160b81b9004168b565b6040518061016001604052806000815260200160608152602001600061ffff16815260200160008152602001606081526020016060815260200160008152602001600015158152602001600061ffff16815260200160006001600160a01b031681526020016000151581525090565b50805461100090611480565b6000825580601f10611010575050565b601f01602090049060005260206000209081019061102e9190611031565b50565b5b808211156110465760008155600101611032565b5090565b6000815180845260005b8181101561107057602081850181015186830182015201611054565b506000602082860101526020601f19601f83011685010191505092915050565b60006101608251845260208301518160208601526110b08286018261104a565b91505060408301516110c8604086018261ffff169052565b5060608301516060850152608083015184820360808601526110ea828261104a565b91505060a083015184820360a0860152611104828261104a565b91505060c083015160c085015260e083015161112460e086018215159052565b506101008381015161ffff1690850152610120808401516001600160a01b03169085015261014092830151151592909301919091525090565b6000602080830181845280855180835260408601915060408160051b870101925083870160005b828110156111b257603f198886030184526111a0858351611090565b94509285019290850190600101611184565b5092979650505050505050565b634e487b7160e01b600052604160045260246000fd5b600082601f8301126111e657600080fd5b813567ffffffffffffffff80821115611201576112016111bf565b604051601f8301601f19908116603f01168101908282118183101715611229576112296111bf565b8160405283815286602085880101111561124257600080fd5b836020870160208301376000602085830101528094505050505092915050565b803561ffff8116811461127457600080fd5b919050565b600080600080600080600060e0888a03121561129457600080fd5b873567ffffffffffffffff808211156112ac57600080fd5b6112b88b838c016111d5565b985060208a01359150808211156112ce57600080fd5b6112da8b838c016111d5565b97506112e860408b01611262565b965060608a0135955060808a013591508082111561130557600080fd5b506113128a828b016111d5565b93505060a0880135801515811461132857600080fd5b915061133660c08901611262565b905092959891949750929550565b60006020828403121561135657600080fd5b5035919050565b6000806000806080858703121561137357600080fd5b84359350602085013567ffffffffffffffff8082111561139257600080fd5b61139e888389016111d5565b94506040870135935060608701359150808211156113bb57600080fd5b506113c8878288016111d5565b91505092959194509250565b6020815260006113e76020830184611090565b9392505050565b60006101608d83528060208401526114088184018e61104a565b905061ffff808d1660408501528b6060850152838203608085015261142d828c61104a565b915083820360a0850152611441828b61104a565b60c085019990995296151560e08401525050929093166101008301526001600160a01b0316610120820152901515610140909101529695505050505050565b600181811c9082168061149457607f821691505b6020821081036114b457634e487b7160e01b600052602260045260246000fd5b50919050565b634e487b7160e01b600052603260045260246000fd5b634e487b7160e01b600052601160045260246000fd5b6000600182016114f8576114f86114d0565b5060010190565b80820180821115611512576115126114d0565b92915050565b601f82111561156257600081815260208120601f850160051c8101602086101561153f5750805b601f850160051c820191505b8181101561155e5782815560010161154b565b5050505b505050565b815167ffffffffffffffff811115611581576115816111bf565b6115958161158f8454611480565b84611518565b602080601f8311600181146115ca57600084156115b25750858301515b600019600386901b1c1916600185901b17855561155e565b600085815260208120601f198616915b828110156115f9578886015182559484019460019091019084016115da565b50858210156116175787850151600019600388901b60f8161c191681555b5050505050600190811b01905550565b60808152600061163a608083018761104a565b8560208401528281036040840152611652818661104a565b91505082606083015295945050505050565b602080825260139082015272125d195b48191bd95cc81b9bdd08195e1a5cdd606a1b604082015260600190565b6060815260006116a4606083018661104a565b84602084015282810360408401526116bc818561104a565b969550505050505056fea2646970667358221220de4fcd90d6459947e948c5b39b80da3788685b8267e1ee09762d8dcdcb64472264736f6c63430008140033",
  "linkReferences": {},
  "deployedLinkReferences": {}
}